{
  "abi": [
    {
      "inputs": [
        {
          "internalType": "string",
          "name": "_username",
          "type": "string"
        }
      ],
      "stateMutability": "nonpayable",
      "type": "constructor"
    },
    {
      "inputs": [],
      "name": "balance",
      "outputs": [
        {
          "internalType": "uint256",
          "name": "",
          "type": "uint256"
        }
      ],
      "stateMutability": "view",
      "type": "function"
    },
    {
      "inputs": [
        {
          "internalType": "address",
          "name": "_token",
          "type": "address"
        },
        {
          "internalType": "uint256",
          "name": "_amount",
          "type": "uint256"
        }
      ],
      "name": "deposit",
      "outputs": [],
      "stateMutability": "payable",
      "type": "function"
    },
    {
      "inputs": [
        {
          "internalType": "address",
          "name": "_token",
          "type": "address"
        }
      ],
      "name": "getBalance",
      "outputs": [
        {
          "internalType": "uint256",
          "name": "",
          "type": "uint256"
        }
      ],
      "stateMutability": "view",
      "type": "function"
    },
    {
      "inputs": [],
      "name": "owner",
      "outputs": [
        {
          "internalType": "address payable",
          "name": "",
          "type": "address"
        }
      ],
      "stateMutability": "view",
      "type": "function"
    },
    {
      "inputs": [
        {
          "internalType": "address",
          "name": "",
          "type": "address"
        }
      ],
      "name": "tokenBalances",
      "outputs": [
        {
          "internalType": "uint256",
          "name": "",
          "type": "uint256"
        }
      ],
      "stateMutability": "view",
      "type": "function"
    },
    {
      "inputs": [
        {
          "internalType": "address",
          "name": "_to",
          "type": "address"
        },
        {
          "internalType": "address",
          "name": "_token",
          "type": "address"
        },
        {
          "internalType": "uint256",
          "name": "_amount",
          "type": "uint256"
        }
      ],
      "name": "transfer",
      "outputs": [],
      "stateMutability": "nonpayable",
      "type": "function"
    },
    {
      "inputs": [],
      "name": "username",
      "outputs": [
        {
          "internalType": "string",
          "name": "",
          "type": "string"
        }
      ],
      "stateMutability": "view",
      "type": "function"
    },
    {
      "inputs": [
        {
          "internalType": "address",
          "name": "_token",
          "type": "address"
        },
        {
          "internalType": "uint256",
          "name": "_amount",
          "type": "uint256"
        }
      ],
      "name": "withdraw",
      "outputs": [],
      "stateMutability": "nonpayable",
      "type": "function"
    },
    {
      "stateMutability": "payable",
      "type": "receive"
    }
  ],
  "bytecode": {
    "object": "0x60806040523480156200001157600080fd5b5060405162000be338038062000be3833981016040819052620000349162000072565b600080546001600160a01b031916331790556001620000548282620001d6565b5050620002a2565b634e487b7160e01b600052604160045260246000fd5b600060208083850312156200008657600080fd5b82516001600160401b03808211156200009e57600080fd5b818501915085601f830112620000b357600080fd5b815181811115620000c857620000c86200005c565b604051601f8201601f19908116603f01168101908382118183101715620000f357620000f36200005c565b8160405282815288868487010111156200010c57600080fd5b600093505b8284101562000130578484018601518185018701529285019262000111565b600086848301015280965050505050505092915050565b600181811c908216806200015c57607f821691505b6020821081036200017d57634e487b7160e01b600052602260045260246000fd5b50919050565b601f821115620001d157600081815260208120601f850160051c81016020861015620001ac5750805b601f850160051c820191505b81811015620001cd57828155600101620001b8565b5050505b505050565b81516001600160401b03811115620001f257620001f26200005c565b6200020a8162000203845462000147565b8462000183565b602080601f831160018114620002425760008415620002295750858301515b600019600386901b1c1916600185901b178555620001cd565b600085815260208120601f198616915b82811015620002735788860151825594840194600190910190840162000252565b5085821015620002925787850151600019600388901b60f8161c191681555b5050505050600190811b01905550565b61093180620002b26000396000f3fe60806040526004361061007f5760003560e01c8063b69ef8a81161004e578063b69ef8a81461013a578063beabacc814610150578063f3fef3a314610170578063f8b2cb4f1461019057600080fd5b806347e7ef241461008b578063523fba7f146100a057806361fac54d146100e05780638da5cb5b1461010257600080fd5b3661008657005b600080fd5b61009e61009936600461078d565b6101b0565b005b3480156100ac57600080fd5b506100cd6100bb3660046107b7565b60036020526000908152604090205481565b6040519081526020015b60405180910390f35b3480156100ec57600080fd5b506100f56102d6565b6040516100d791906107d2565b34801561010e57600080fd5b50600054610122906001600160a01b031681565b6040516001600160a01b0390911681526020016100d7565b34801561014657600080fd5b506100cd60025481565b34801561015c57600080fd5b5061009e61016b366004610820565b610364565b34801561017c57600080fd5b5061009e61018b36600461078d565b610528565b34801561019c57600080fd5b506100cd6101ab3660046107b7565b61071c565b6001600160a01b03821661021e5780341461020a5760405162461bcd60e51b8152602060048201526015602482015274125b98dbdc9c9958dd08185b5bdd5b9d081cd95b9d605a1b60448201526064015b60405180910390fd5b6002546102179082610755565b6002555050565b6040516323b872dd60e01b8152336004820152306024820152604481018290526001600160a01b038316906323b872dd906064016020604051808303816000875af1158015610271573d6000803e3d6000fd5b505050506040513d601f19601f82011682018060405250810190610295919061085c565b506001600160a01b0382166000908152600360205260409020546102b99082610755565b6001600160a01b0383166000908152600360205260409020555050565b600180546102e390610885565b80601f016020809104026020016040519081016040528092919081815260200182805461030f90610885565b801561035c5780601f106103315761010080835404028352916020019161035c565b820191906000526020600020905b81548152906001019060200180831161033f57829003601f168201915b505050505081565b6001600160a01b03821661040b578060025410156103bf5760405162461bcd60e51b8152602060048201526018602482015277496e73756666696369656e74204554482062616c616e636560401b6044820152606401610201565b6002546103cc908261076a565b6002556040516001600160a01b0384169082156108fc029083906000818181858888f19350505050158015610405573d6000803e3d6000fd5b50505050565b6001600160a01b0382166000908152600360205260409020548111156104735760405162461bcd60e51b815260206004820152601a60248201527f496e73756666696369656e7420746f6b656e2062616c616e63650000000000006044820152606401610201565b60405163a9059cbb60e01b81526001600160a01b0384811660048301526024820183905283169063a9059cbb906044016020604051808303816000875af11580156104c2573d6000803e3d6000fd5b505050506040513d601f19601f820116820180604052508101906104e6919061085c565b506001600160a01b03821660009081526003602052604090205461050a908261076a565b6001600160a01b038316600090815260036020526040902055505050565b6000546001600160a01b031633146105825760405162461bcd60e51b815260206004820152601d60248201527f4f6e6c79206f776e65722063616e2077697468647261772066756e64730000006044820152606401610201565b6001600160a01b03821661061f578060025410156105dd5760405162461bcd60e51b8152602060048201526018602482015277496e73756666696369656e74204554482062616c616e636560401b6044820152606401610201565b6002546105ea908261076a565b600255604051339082156108fc029083906000818181858888f1935050505015801561061a573d6000803e3d6000fd5b505050565b6001600160a01b0382166000908152600360205260409020548111156106875760405162461bcd60e51b815260206004820152601a60248201527f496e73756666696369656e7420746f6b656e2062616c616e63650000000000006044820152606401610201565b60405163a9059cbb60e01b8152336004820152602481018290526001600160a01b0383169063a9059cbb906044016020604051808303816000875af11580156106d4573d6000803e3d6000fd5b505050506040513d601f19601f820116820180604052508101906106f8919061085c565b506001600160a01b0382166000908152600360205260409020546102b9908261076a565b60006001600160a01b03821661073457505060025490565b506001600160a01b031660009081526003602052604090205490565b919050565b600061076182846108d5565b90505b92915050565b600061076182846108e8565b80356001600160a01b038116811461075057600080fd5b600080604083850312156107a057600080fd5b6107a983610776565b946020939093013593505050565b6000602082840312156107c957600080fd5b61076182610776565b600060208083528351808285015260005b818110156107ff578581018301518582016040015282016107e3565b506000604082860101526040601f19601f8301168501019250505092915050565b60008060006060848603121561083557600080fd5b61083e84610776565b925061084c60208501610776565b9150604084013590509250925092565b60006020828403121561086e57600080fd5b8151801515811461087e57600080fd5b9392505050565b600181811c9082168061089957607f821691505b6020821081036108b957634e487b7160e01b600052602260045260246000fd5b50919050565b634e487b7160e01b600052601160045260246000fd5b80820180821115610764576107646108bf565b81810381811115610764576107646108bf56fea264697066735822122090dcc394f73743936f0cc1349f8a6d131dc1e26cbe46d0509131469f6fe6a44364736f6c63430008110033",
    "linkReferences": {}
  },
  "methodIdentifiers": {
    "balance()": "b69ef8a8",
    "deposit(address,uint256)": "47e7ef24",
    "getBalance(address)": "f8b2cb4f",
    "owner()": "8da5cb5b",
    "tokenBalances(address)": "523fba7f",
    "transfer(address,address,uint256)": "beabacc8",
    "username()": "61fac54d",
    "withdraw(address,uint256)": "f3fef3a3"
  },
  "id": 25
}