{
  "abi": [
    {
      "inputs": [],
      "stateMutability": "nonpayable",
      "type": "constructor"
    },
    {
      "anonymous": false,
      "inputs": [
        {
          "indexed": true,
          "internalType": "address",
          "name": "previousOwner",
          "type": "address"
        },
        {
          "indexed": true,
          "internalType": "address",
          "name": "newOwner",
          "type": "address"
        }
      ],
      "name": "OwnershipTransferred",
      "type": "event"
    },
    {
      "inputs": [
        {
          "internalType": "string",
          "name": "_username",
          "type": "string"
        }
      ],
      "name": "createWallet",
      "outputs": [
        {
          "internalType": "address",
          "name": "",
          "type": "address"
        }
      ],
      "stateMutability": "nonpayable",
      "type": "function"
    },
    {
      "inputs": [
        {
          "internalType": "address",
          "name": "_walletAddress",
          "type": "address"
        }
      ],
      "name": "getUsernameByWallet",
      "outputs": [
        {
          "internalType": "string",
          "name": "",
          "type": "string"
        }
      ],
      "stateMutability": "view",
      "type": "function"
    },
    {
      "inputs": [
        {
          "internalType": "string",
          "name": "_username",
          "type": "string"
        }
      ],
      "name": "getWalletByUsername",
      "outputs": [
        {
          "internalType": "address",
          "name": "",
          "type": "address"
        }
      ],
      "stateMutability": "view",
      "type": "function"
    },
    {
      "inputs": [
        {
          "internalType": "address",
          "name": "_walletAddress",
          "type": "address"
        }
      ],
      "name": "getWalletOwner",
      "outputs": [
        {
          "internalType": "address",
          "name": "",
          "type": "address"
        }
      ],
      "stateMutability": "view",
      "type": "function"
    },
    {
      "inputs": [],
      "name": "owner",
      "outputs": [
        {
          "internalType": "address",
          "name": "",
          "type": "address"
        }
      ],
      "stateMutability": "view",
      "type": "function"
    },
    {
      "inputs": [],
      "name": "renounceOwnership",
      "outputs": [],
      "stateMutability": "nonpayable",
      "type": "function"
    },
    {
      "inputs": [
        {
          "internalType": "address",
          "name": "newOwner",
          "type": "address"
        }
      ],
      "name": "transferOwnership",
      "outputs": [],
      "stateMutability": "nonpayable",
      "type": "function"
    },
    {
      "inputs": [
        {
          "internalType": "string",
          "name": "",
          "type": "string"
        }
      ],
      "name": "usernameToWalletAddress",
      "outputs": [
        {
          "internalType": "address",
          "name": "",
          "type": "address"
        }
      ],
      "stateMutability": "view",
      "type": "function"
    },
    {
      "inputs": [
        {
          "internalType": "address",
          "name": "",
          "type": "address"
        }
      ],
      "name": "walletAddressToUsername",
      "outputs": [
        {
          "internalType": "string",
          "name": "",
          "type": "string"
        }
      ],
      "stateMutability": "view",
      "type": "function"
    },
    {
      "inputs": [
        {
          "internalType": "address",
          "name": "",
          "type": "address"
        }
      ],
      "name": "walletOwners",
      "outputs": [
        {
          "internalType": "address",
          "name": "",
          "type": "address"
        }
      ],
      "stateMutability": "view",
      "type": "function"
    }
  ],
  "bytecode": {
    "object": "0x608060405234801561001057600080fd5b5061001a33610031565b600180546001600160a01b03191633179055610081565b600080546001600160a01b038381166001600160a01b0319831681178455604051919092169283917f8be0079c531659141344cd1fd0a4f28419497f9722a3daafe3b4186f6b6457e09190a35050565b61155f806100906000396000f3fe60806040523480156200001157600080fd5b5060043610620000ab5760003560e01c80639618c173116200006e5780639618c1731462000150578063966708a51462000176578063a8e9379a14620001a5578063bd67c29714620001d1578063f2fde38b14620001e857600080fd5b80635e43a14514620000b0578063715018a614620000e45780637404f1d214620000f057806386b0c88b14620001075780638da5cb5b146200013e575b600080fd5b620000c7620000c136600462000684565b620001ff565b6040516001600160a01b0390911681526020015b60405180910390f35b620000ee62000232565b005b620000c76200010136600462000684565b6200024a565b620000c76200011836600462000684565b80516020818301810180516004825292820191909301209152546001600160a01b031681565b6000546001600160a01b0316620000c7565b62000167620001613660046200073f565b620003df565b604051620000db919062000797565b620000c7620001873660046200073f565b6001600160a01b039081166000908152600260205260409020541690565b620000c7620001b63660046200073f565b6002602052600090815260409020546001600160a01b031681565b62000167620001e23660046200073f565b62000481565b620000ee620001f93660046200073f565b62000535565b6000600482604051620002139190620007cc565b908152604051908190036020019020546001600160a01b031692915050565b6200023c620005b4565b62000248600062000610565b565b6000806001600160a01b0316600483604051620002689190620007cc565b908152604051908190036020019020546001600160a01b031614620002cd5760405162461bcd60e51b81526020600482015260166024820152752ab9b2b93730b6b29030b63932b0b23c903a30b5b2b760511b60448201526064015b60405180910390fd5b600082604051620002de9062000660565b620002ea919062000797565b604051809103906000f08015801562000307573d6000803e3d6000fd5b50600380546001810182556000919091527fc2575a0e9e593c00f959f8c92f12db2869c3395a3b0502d05e2516446f71f85b0180546001600160a01b0319166001600160a01b03831617905560405190915081906004906200036b908690620007cc565b908152604080516020928190038301902080546001600160a01b0319166001600160a01b039485161790559183166000908152600590915220620003b0848262000879565b506001600160a01b038116600090815260026020526040902080546001600160a01b0319163317905592915050565b60056020526000908152604090208054620003fa90620007ea565b80601f01602080910402602001604051908101604052809291908181526020018280546200042890620007ea565b8015620004795780601f106200044d5761010080835404028352916020019162000479565b820191906000526020600020905b8154815290600101906020018083116200045b57829003601f168201915b505050505081565b6001600160a01b0381166000908152600560205260409020805460609190620004aa90620007ea565b80601f0160208091040260200160405190810160405280929190818152602001828054620004d890620007ea565b8015620005295780601f10620004fd5761010080835404028352916020019162000529565b820191906000526020600020905b8154815290600101906020018083116200050b57829003601f168201915b50505050509050919050565b6200053f620005b4565b6001600160a01b038116620005a65760405162461bcd60e51b815260206004820152602660248201527f4f776e61626c653a206e6577206f776e657220697320746865207a65726f206160448201526564647265737360d01b6064820152608401620002c4565b620005b18162000610565b50565b6000546001600160a01b03163314620002485760405162461bcd60e51b815260206004820181905260248201527f4f776e61626c653a2063616c6c6572206973206e6f7420746865206f776e65726044820152606401620002c4565b600080546001600160a01b038381166001600160a01b0319831681178455604051919092169283917f8be0079c531659141344cd1fd0a4f28419497f9722a3daafe3b4186f6b6457e09190a35050565b610be3806200094783390190565b634e487b7160e01b600052604160045260246000fd5b6000602082840312156200069757600080fd5b813567ffffffffffffffff80821115620006b057600080fd5b818401915084601f830112620006c557600080fd5b813581811115620006da57620006da6200066e565b604051601f8201601f19908116603f011681019083821181831017156200070557620007056200066e565b816040528281528760208487010111156200071f57600080fd5b826020860160208301376000928101602001929092525095945050505050565b6000602082840312156200075257600080fd5b81356001600160a01b03811681146200076a57600080fd5b9392505050565b60005b838110156200078e57818101518382015260200162000774565b50506000910152565b6020815260008251806020840152620007b881604085016020870162000771565b601f01601f19169190910160400192915050565b60008251620007e081846020870162000771565b9190910192915050565b600181811c90821680620007ff57607f821691505b6020821081036200082057634e487b7160e01b600052602260045260246000fd5b50919050565b601f8211156200087457600081815260208120601f850160051c810160208610156200084f5750805b601f850160051c820191505b8181101562000870578281556001016200085b565b5050505b505050565b815167ffffffffffffffff8111156200089657620008966200066e565b620008ae81620008a78454620007ea565b8462000826565b602080601f831160018114620008e65760008415620008cd5750858301515b600019600386901b1c1916600185901b17855562000870565b600085815260208120601f198616915b828110156200091757888601518255948401946001909101908401620008f6565b5085821015620009365787850151600019600388901b60f8161c191681555b5050505050600190811b0190555056fe60806040523480156200001157600080fd5b5060405162000be338038062000be3833981016040819052620000349162000072565b600080546001600160a01b031916331790556001620000548282620001d6565b5050620002a2565b634e487b7160e01b600052604160045260246000fd5b600060208083850312156200008657600080fd5b82516001600160401b03808211156200009e57600080fd5b818501915085601f830112620000b357600080fd5b815181811115620000c857620000c86200005c565b604051601f8201601f19908116603f01168101908382118183101715620000f357620000f36200005c565b8160405282815288868487010111156200010c57600080fd5b600093505b8284101562000130578484018601518185018701529285019262000111565b600086848301015280965050505050505092915050565b600181811c908216806200015c57607f821691505b6020821081036200017d57634e487b7160e01b600052602260045260246000fd5b50919050565b601f821115620001d157600081815260208120601f850160051c81016020861015620001ac5750805b601f850160051c820191505b81811015620001cd57828155600101620001b8565b5050505b505050565b81516001600160401b03811115620001f257620001f26200005c565b6200020a8162000203845462000147565b8462000183565b602080601f831160018114620002425760008415620002295750858301515b600019600386901b1c1916600185901b178555620001cd565b600085815260208120601f198616915b82811015620002735788860151825594840194600190910190840162000252565b5085821015620002925787850151600019600388901b60f8161c191681555b5050505050600190811b01905550565b61093180620002b26000396000f3fe60806040526004361061007f5760003560e01c8063b69ef8a81161004e578063b69ef8a81461013a578063beabacc814610150578063f3fef3a314610170578063f8b2cb4f1461019057600080fd5b806347e7ef241461008b578063523fba7f146100a057806361fac54d146100e05780638da5cb5b1461010257600080fd5b3661008657005b600080fd5b61009e61009936600461078d565b6101b0565b005b3480156100ac57600080fd5b506100cd6100bb3660046107b7565b60036020526000908152604090205481565b6040519081526020015b60405180910390f35b3480156100ec57600080fd5b506100f56102d6565b6040516100d791906107d2565b34801561010e57600080fd5b50600054610122906001600160a01b031681565b6040516001600160a01b0390911681526020016100d7565b34801561014657600080fd5b506100cd60025481565b34801561015c57600080fd5b5061009e61016b366004610820565b610364565b34801561017c57600080fd5b5061009e61018b36600461078d565b610528565b34801561019c57600080fd5b506100cd6101ab3660046107b7565b61071c565b6001600160a01b03821661021e5780341461020a5760405162461bcd60e51b8152602060048201526015602482015274125b98dbdc9c9958dd08185b5bdd5b9d081cd95b9d605a1b60448201526064015b60405180910390fd5b6002546102179082610755565b6002555050565b6040516323b872dd60e01b8152336004820152306024820152604481018290526001600160a01b038316906323b872dd906064016020604051808303816000875af1158015610271573d6000803e3d6000fd5b505050506040513d601f19601f82011682018060405250810190610295919061085c565b506001600160a01b0382166000908152600360205260409020546102b99082610755565b6001600160a01b0383166000908152600360205260409020555050565b600180546102e390610885565b80601f016020809104026020016040519081016040528092919081815260200182805461030f90610885565b801561035c5780601f106103315761010080835404028352916020019161035c565b820191906000526020600020905b81548152906001019060200180831161033f57829003601f168201915b505050505081565b6001600160a01b03821661040b578060025410156103bf5760405162461bcd60e51b8152602060048201526018602482015277496e73756666696369656e74204554482062616c616e636560401b6044820152606401610201565b6002546103cc908261076a565b6002556040516001600160a01b0384169082156108fc029083906000818181858888f19350505050158015610405573d6000803e3d6000fd5b50505050565b6001600160a01b0382166000908152600360205260409020548111156104735760405162461bcd60e51b815260206004820152601a60248201527f496e73756666696369656e7420746f6b656e2062616c616e63650000000000006044820152606401610201565b60405163a9059cbb60e01b81526001600160a01b0384811660048301526024820183905283169063a9059cbb906044016020604051808303816000875af11580156104c2573d6000803e3d6000fd5b505050506040513d601f19601f820116820180604052508101906104e6919061085c565b506001600160a01b03821660009081526003602052604090205461050a908261076a565b6001600160a01b038316600090815260036020526040902055505050565b6000546001600160a01b031633146105825760405162461bcd60e51b815260206004820152601d60248201527f4f6e6c79206f776e65722063616e2077697468647261772066756e64730000006044820152606401610201565b6001600160a01b03821661061f578060025410156105dd5760405162461bcd60e51b8152602060048201526018602482015277496e73756666696369656e74204554482062616c616e636560401b6044820152606401610201565b6002546105ea908261076a565b600255604051339082156108fc029083906000818181858888f1935050505015801561061a573d6000803e3d6000fd5b505050565b6001600160a01b0382166000908152600360205260409020548111156106875760405162461bcd60e51b815260206004820152601a60248201527f496e73756666696369656e7420746f6b656e2062616c616e63650000000000006044820152606401610201565b60405163a9059cbb60e01b8152336004820152602481018290526001600160a01b0383169063a9059cbb906044016020604051808303816000875af11580156106d4573d6000803e3d6000fd5b505050506040513d601f19601f820116820180604052508101906106f8919061085c565b506001600160a01b0382166000908152600360205260409020546102b9908261076a565b60006001600160a01b03821661073457505060025490565b506001600160a01b031660009081526003602052604090205490565b919050565b600061076182846108d5565b90505b92915050565b600061076182846108e8565b80356001600160a01b038116811461075057600080fd5b600080604083850312156107a057600080fd5b6107a983610776565b946020939093013593505050565b6000602082840312156107c957600080fd5b61076182610776565b600060208083528351808285015260005b818110156107ff578581018301518582016040015282016107e3565b506000604082860101526040601f19601f8301168501019250505092915050565b60008060006060848603121561083557600080fd5b61083e84610776565b925061084c60208501610776565b9150604084013590509250925092565b60006020828403121561086e57600080fd5b8151801515811461087e57600080fd5b9392505050565b600181811c9082168061089957607f821691505b6020821081036108b957634e487b7160e01b600052602260045260246000fd5b50919050565b634e487b7160e01b600052601160045260246000fd5b80820180821115610764576107646108bf565b81810381811115610764576107646108bf56fea264697066735822122090dcc394f73743936f0cc1349f8a6d131dc1e26cbe46d0509131469f6fe6a44364736f6c63430008110033a264697066735822122078b39baa012273520ddecc2dac62d29d518a1d58a5b114c4ad984c4f1065e98364736f6c63430008110033",
    "linkReferences": {}
  },
  "methodIdentifiers": {
    "createWallet(string)": "7404f1d2",
    "getUsernameByWallet(address)": "bd67c297",
    "getWalletByUsername(string)": "5e43a145",
    "getWalletOwner(address)": "966708a5",
    "owner()": "8da5cb5b",
    "renounceOwnership()": "715018a6",
    "transferOwnership(address)": "f2fde38b",
    "usernameToWalletAddress(string)": "86b0c88b",
    "walletAddressToUsername(address)": "9618c173",
    "walletOwners(address)": "a8e9379a"
  },
  "id": 26
}